{
  "contractName": "IPFSInbox",
  "abi": [
    {
      "inputs": [],
      "payable": false,
      "stateMutability": "nonpayable",
      "type": "constructor"
    },
    {
      "anonymous": false,
      "inputs": [
        {
          "indexed": false,
          "internalType": "string",
          "name": "response",
          "type": "string"
        }
      ],
      "name": "inboxResponse",
      "type": "event"
    },
    {
      "anonymous": false,
      "inputs": [
        {
          "indexed": false,
          "internalType": "string",
          "name": "_ipfsHash",
          "type": "string"
        },
        {
          "indexed": false,
          "internalType": "address",
          "name": "_address",
          "type": "address"
        }
      ],
      "name": "ipfsSent",
      "type": "event"
    },
    {
      "constant": false,
      "inputs": [
        {
          "internalType": "address",
          "name": "_address",
          "type": "address"
        },
        {
          "internalType": "string",
          "name": "_ipfsHash",
          "type": "string"
        }
      ],
      "name": "sendIPFS",
      "outputs": [],
      "payable": false,
      "stateMutability": "nonpayable",
      "type": "function"
    },
    {
      "constant": false,
      "inputs": [
        {
          "internalType": "address",
          "name": "_address",
          "type": "address"
        }
      ],
      "name": "assignDoc",
      "outputs": [],
      "payable": false,
      "stateMutability": "nonpayable",
      "type": "function"
    },
    {
      "constant": false,
      "inputs": [
        {
          "internalType": "address",
          "name": "_address",
          "type": "address"
        }
      ],
      "name": "assignPat",
      "outputs": [],
      "payable": false,
      "stateMutability": "nonpayable",
      "type": "function"
    },
    {
      "constant": false,
      "inputs": [
        {
          "internalType": "address",
          "name": "_address",
          "type": "address"
        }
      ],
      "name": "canUpdate",
      "outputs": [],
      "payable": false,
      "stateMutability": "nonpayable",
      "type": "function"
    },
    {
      "constant": false,
      "inputs": [],
      "name": "checkInbox",
      "outputs": [],
      "payable": false,
      "stateMutability": "nonpayable",
      "type": "function"
    },
    {
      "constant": false,
      "inputs": [
        {
          "internalType": "address",
          "name": "_reqaddress",
          "type": "address"
        }
      ],
      "name": "getRecord",
      "outputs": [],
      "payable": false,
      "stateMutability": "nonpayable",
      "type": "function"
    },
    {
      "constant": false,
      "inputs": [
        {
          "internalType": "address",
          "name": "_shareaddress",
          "type": "address"
        }
      ],
      "name": "signRequest",
      "outputs": [],
      "payable": false,
      "stateMutability": "nonpayable",
      "type": "function"
    },
    {
      "constant": false,
      "inputs": [
        {
          "internalType": "address",
          "name": "_shareaddress",
          "type": "address"
        }
      ],
      "name": "getSharedRecord",
      "outputs": [],
      "payable": false,
      "stateMutability": "nonpayable",
      "type": "function"
    }
  ],
  "bytecode": "0x608060405234801561001057600080fd5b506001806000734c2d220c5c16c1b10531eaa06955fc405f083a6c73ffffffffffffffffffffffffffffffffffffffff1673ffffffffffffffffffffffffffffffffffffffff16815260200190815260200160002060006101000a81548160ff021916908360ff16021790555060026001600073e6b77c28b0a5a63b73e1a470f36187d74b8aa0b473ffffffffffffffffffffffffffffffffffffffff1673ffffffffffffffffffffffffffffffffffffffff16815260200190815260200160002060006101000a81548160ff021916908360ff1602179055506003600160007301f80c59484ebf5f2956db8ec58e502dbda9dff973ffffffffffffffffffffffffffffffffffffffff1673ffffffffffffffffffffffffffffffffffffffff16815260200190815260200160002060006101000a81548160ff021916908360ff160217905550611cc4806101666000396000f3fe608060405234801561001057600080fd5b50600436106100875760003560e01c80636bfc70e21161005b5780636bfc70e2146101625780638c5f64321461023d5780639eb1376314610281578063e73872b9146102c557610087565b8062d874c51461008c5780633137a11d146100d05780635c23d56f14610114578063617fba041461011e575b600080fd5b6100ce600480360360208110156100a257600080fd5b81019080803573ffffffffffffffffffffffffffffffffffffffff169060200190929190505050610309565b005b610112600480360360208110156100e657600080fd5b81019080803573ffffffffffffffffffffffffffffffffffffffff1690602001909291905050506103be565b005b61011c6106d6565b005b6101606004803603602081101561013457600080fd5b81019080803573ffffffffffffffffffffffffffffffffffffffff1690602001909291905050506108cb565b005b61023b6004803603604081101561017857600080fd5b81019080803573ffffffffffffffffffffffffffffffffffffffff169060200190929190803590602001906401000000008111156101b557600080fd5b8201836020820111156101c757600080fd5b803590602001918460018302840111640100000000831117156101e957600080fd5b91908080601f016020809104026020016040519081016040528093929190818152602001838380828437600081840152601f19601f820116905080830192505050505050509192919290505050610fd1565b005b61027f6004803603602081101561025357600080fd5b81019080803573ffffffffffffffffffffffffffffffffffffffff1690602001909291905050506113e3565b005b6102c36004803603602081101561029757600080fd5b81019080803573ffffffffffffffffffffffffffffffffffffffff169060200190929190505050611554565b005b610307600480360360208110156102db57600080fd5b81019080803573ffffffffffffffffffffffffffffffffffffffff169060200190929190505050611608565b005b6003600160003373ffffffffffffffffffffffffffffffffffffffff1673ffffffffffffffffffffffffffffffffffffffff16815260200190815260200160002060009054906101000a900460ff1660ff1614156103bb576002600160008373ffffffffffffffffffffffffffffffffffffffff1673ffffffffffffffffffffffffffffffffffffffff16815260200190815260200160002060006101000a81548160ff021916908360ff1602179055505b50565b60606000808373ffffffffffffffffffffffffffffffffffffffff1673ffffffffffffffffffffffffffffffffffffffff1681526020019081526020016000206002018054600181600116156101000203166002900480601f0160208091040260200160405190810160405280929190818152602001828054600181600116156101000203166002900480156104955780601f1061046a57610100808354040283529160200191610495565b820191906000526020600020905b81548152906001019060200180831161047857829003601f168201915b5050505050905060008090506000809050600091505b6000808573ffffffffffffffffffffffffffffffffffffffff1673ffffffffffffffffffffffffffffffffffffffff168152602001908152602001600020600401805490508260ff1610156105b9573373ffffffffffffffffffffffffffffffffffffffff166000808673ffffffffffffffffffffffffffffffffffffffff1673ffffffffffffffffffffffffffffffffffffffff1681526020019081526020016000206004018360ff168154811061056057fe5b9060005260206000200160009054906101000a900473ffffffffffffffffffffffffffffffffffffffff1673ffffffffffffffffffffffffffffffffffffffff1614156105ac57600190505b81806001019250506104ab565b600015158115151415610633577f2974ec83b4de9f76155d0c3e88bd3c0645c56c1795807f37d3f9e95caafeee5760405180806020018281038252600b8152602001807f456d70747920496e626f7800000000000000000000000000000000000000000081525060200191505060405180910390a16106d0565b7f2974ec83b4de9f76155d0c3e88bd3c0645c56c1795807f37d3f9e95caafeee57836040518080602001828103825283818151815260200191508051906020019080838360005b8381101561069557808201518184015260208101905061067a565b50505050905090810190601f1680156106c25780820380516001836020036101000a031916815260200191505b509250505060405180910390a15b50505050565b60606000803373ffffffffffffffffffffffffffffffffffffffff1673ffffffffffffffffffffffffffffffffffffffff1681526020019081526020016000206002018054600181600116156101000203166002900480601f0160208091040260200160405190810160405280929190818152602001828054600181600116156101000203166002900480156107ad5780601f10610782576101008083540402835291602001916107ad565b820191906000526020600020905b81548152906001019060200180831161079057829003601f168201915b5050505050905060008151141561082b577f2974ec83b4de9f76155d0c3e88bd3c0645c56c1795807f37d3f9e95caafeee576040518080602001828103825260098152602001807f4e6f207265636f7264000000000000000000000000000000000000000000000081525060200191505060405180910390a16108c8565b7f2974ec83b4de9f76155d0c3e88bd3c0645c56c1795807f37d3f9e95caafeee57816040518080602001828103825283818151815260200191508051906020019080838360005b8381101561088d578082015181840152602081019050610872565b50505050905090810190601f1680156108ba5780820380516001836020036101000a031916815260200191505b509250505060405180910390a15b50565b600015156000808373ffffffffffffffffffffffffffffffffffffffff1673ffffffffffffffffffffffffffffffffffffffff16815260200190815260200160002060030160009054906101000a900460ff1615151415610993577f2974ec83b4de9f76155d0c3e88bd3c0645c56c1795807f37d3f9e95caafeee576040518080602001828103825260098152602001807f4e6f207265636f7264000000000000000000000000000000000000000000000081525060200191505060405180910390a1610fce565b3373ffffffffffffffffffffffffffffffffffffffff166000808373ffffffffffffffffffffffffffffffffffffffff1673ffffffffffffffffffffffffffffffffffffffff16815260200190815260200160002060000160009054906101000a900473ffffffffffffffffffffffffffffffffffffffff1673ffffffffffffffffffffffffffffffffffffffff161480610aba57503373ffffffffffffffffffffffffffffffffffffffff166000808373ffffffffffffffffffffffffffffffffffffffff1673ffffffffffffffffffffffffffffffffffffffff16815260200190815260200160002060010160009054906101000a900473ffffffffffffffffffffffffffffffffffffffff1673ffffffffffffffffffffffffffffffffffffffff16145b15610cb75760606000808373ffffffffffffffffffffffffffffffffffffffff1673ffffffffffffffffffffffffffffffffffffffff1681526020019081526020016000206002018054600181600116156101000203166002900480601f016020809104026020016040519081016040528092919081815260200182805460018160011615610100020316600290048015610b965780601f10610b6b57610100808354040283529160200191610b96565b820191906000526020600020905b815481529060010190602001808311610b7957829003601f168201915b50505050509050600081511415610c14577f2974ec83b4de9f76155d0c3e88bd3c0645c56c1795807f37d3f9e95caafeee576040518080602001828103825260098152602001807f4e6f207265636f7264000000000000000000000000000000000000000000000081525060200191505060405180910390a1610cb1565b7f2974ec83b4de9f76155d0c3e88bd3c0645c56c1795807f37d3f9e95caafeee57816040518080602001828103825283818151815260200191508051906020019080838360005b83811015610c76578082015181840152602081019050610c5b565b50505050905090810190601f168015610ca35780820380516001836020036101000a031916815260200191505b509250505060405180910390a15b50610fcd565b60606000808373ffffffffffffffffffffffffffffffffffffffff1673ffffffffffffffffffffffffffffffffffffffff1681526020019081526020016000206002018054600181600116156101000203166002900480601f016020809104026020016040519081016040528092919081815260200182805460018160011615610100020316600290048015610d8e5780601f10610d6357610100808354040283529160200191610d8e565b820191906000526020600020905b815481529060010190602001808311610d7157829003601f168201915b5050505050905060008090506000809050600091505b6000808573ffffffffffffffffffffffffffffffffffffffff1673ffffffffffffffffffffffffffffffffffffffff168152602001908152602001600020600401805490508260ff161015610eb2573373ffffffffffffffffffffffffffffffffffffffff166000808673ffffffffffffffffffffffffffffffffffffffff1673ffffffffffffffffffffffffffffffffffffffff1681526020019081526020016000206004018360ff1681548110610e5957fe5b9060005260206000200160009054906101000a900473ffffffffffffffffffffffffffffffffffffffff1673ffffffffffffffffffffffffffffffffffffffff161415610ea557600190505b8180600101925050610da4565b600015158115151415610f2c577f2974ec83b4de9f76155d0c3e88bd3c0645c56c1795807f37d3f9e95caafeee576040518080602001828103825260188152602001807f496e73756666696369656e74205065726d697373696f6e73000000000000000081525060200191505060405180910390a1610fc9565b7f2974ec83b4de9f76155d0c3e88bd3c0645c56c1795807f37d3f9e95caafeee57836040518080602001828103825283818151815260200191508051906020019080838360005b83811015610f8e578082015181840152602081019050610f73565b50505050905090810190601f168015610fbb5780820380516001836020036101000a031916815260200191505b509250505060405180910390a15b5050505b5b50565b600115156000808473ffffffffffffffffffffffffffffffffffffffff1673ffffffffffffffffffffffffffffffffffffffff16815260200190815260200160002060030160009054906101000a900460ff1615151415611099577f2974ec83b4de9f76155d0c3e88bd3c0645c56c1795807f37d3f9e95caafeee576040518080602001828103825260068152602001807f657869737473000000000000000000000000000000000000000000000000000081525060200191505060405180910390a16113df565b60018060003373ffffffffffffffffffffffffffffffffffffffff1673ffffffffffffffffffffffffffffffffffffffff16815260200190815260200160002060009054906101000a900460ff1660ff16141561137557806000808473ffffffffffffffffffffffffffffffffffffffff1673ffffffffffffffffffffffffffffffffffffffff1681526020019081526020016000206002019080519060200190611145929190611bea565b50816000808473ffffffffffffffffffffffffffffffffffffffff1673ffffffffffffffffffffffffffffffffffffffff16815260200190815260200160002060010160006101000a81548173ffffffffffffffffffffffffffffffffffffffff021916908373ffffffffffffffffffffffffffffffffffffffff160217905550336000808473ffffffffffffffffffffffffffffffffffffffff1673ffffffffffffffffffffffffffffffffffffffff16815260200190815260200160002060000160006101000a81548173ffffffffffffffffffffffffffffffffffffffff021916908373ffffffffffffffffffffffffffffffffffffffff16021790555060016000808473ffffffffffffffffffffffffffffffffffffffff1673ffffffffffffffffffffffffffffffffffffffff16815260200190815260200160002060030160006101000a81548160ff0219169083151502179055507fd3896131bca4353bcda578f36768163e2ca77cefb2988be6c4e81939ca298ac0818360405180806020018373ffffffffffffffffffffffffffffffffffffffff1673ffffffffffffffffffffffffffffffffffffffff168152602001828103825284818151815260200191508051906020019080838360005b8381101561133557808201518184015260208101905061131a565b50505050905090810190601f1680156113625780820380516001836020036101000a031916815260200191505b50935050505060405180910390a16113de565b7f2974ec83b4de9f76155d0c3e88bd3c0645c56c1795807f37d3f9e95caafeee5760405180806020018281038252600c8152602001807f4e6f74206120646f63746f72000000000000000000000000000000000000000081525060200191505060405180910390a15b5b5050565b600115156000803373ffffffffffffffffffffffffffffffffffffffff1673ffffffffffffffffffffffffffffffffffffffff16815260200190815260200160002060030160009054906101000a900460ff16151514156114e8576000803373ffffffffffffffffffffffffffffffffffffffff1673ffffffffffffffffffffffffffffffffffffffff1681526020019081526020016000206004018190806001815401808255809150509060018203906000526020600020016000909192909190916101000a81548173ffffffffffffffffffffffffffffffffffffffff021916908373ffffffffffffffffffffffffffffffffffffffff16021790555050611551565b7f2974ec83b4de9f76155d0c3e88bd3c0645c56c1795807f37d3f9e95caafeee576040518080602001828103825260098152602001807f4e6f207265636f7264000000000000000000000000000000000000000000000081525060200191505060405180910390a15b50565b6003600160003373ffffffffffffffffffffffffffffffffffffffff1673ffffffffffffffffffffffffffffffffffffffff16815260200190815260200160002060009054906101000a900460ff1660ff1614156116055760018060008373ffffffffffffffffffffffffffffffffffffffff1673ffffffffffffffffffffffffffffffffffffffff16815260200190815260200160002060006101000a81548160ff021916908360ff1602179055505b50565b60008090503373ffffffffffffffffffffffffffffffffffffffff166000808473ffffffffffffffffffffffffffffffffffffffff1673ffffffffffffffffffffffffffffffffffffffff16815260200190815260200160002060000160009054906101000a900473ffffffffffffffffffffffffffffffffffffffff1673ffffffffffffffffffffffffffffffffffffffff1614156117035760016000808473ffffffffffffffffffffffffffffffffffffffff1673ffffffffffffffffffffffffffffffffffffffff16815260200190815260200160002060030160026101000a81548160ff0219169083151502179055506001810190505b3373ffffffffffffffffffffffffffffffffffffffff166000808473ffffffffffffffffffffffffffffffffffffffff1673ffffffffffffffffffffffffffffffffffffffff16815260200190815260200160002060010160009054906101000a900473ffffffffffffffffffffffffffffffffffffffff1673ffffffffffffffffffffffffffffffffffffffff1614156117f95760016000808473ffffffffffffffffffffffffffffffffffffffff1673ffffffffffffffffffffffffffffffffffffffff16815260200190815260200160002060030160016101000a81548160ff0219169083151502179055506001810190505b600015156000808473ffffffffffffffffffffffffffffffffffffffff1673ffffffffffffffffffffffffffffffffffffffff16815260200190815260200160002060030160009054906101000a900460ff16151514156118c1577f2974ec83b4de9f76155d0c3e88bd3c0645c56c1795807f37d3f9e95caafeee576040518080602001828103825260098152602001807f4e6f207265636f7264000000000000000000000000000000000000000000000081525060200191505060405180910390a1611be6565b60008160ff16141561193a577f2974ec83b4de9f76155d0c3e88bd3c0645c56c1795807f37d3f9e95caafeee576040518080602001828103825260188152602001807f496e73756666696369656e74205065726d697373696f6e73000000000000000081525060200191505060405180910390a1611be5565b600115156000808473ffffffffffffffffffffffffffffffffffffffff1673ffffffffffffffffffffffffffffffffffffffff16815260200190815260200160002060030160019054906101000a900460ff1615151480156119ee5750600115156000808473ffffffffffffffffffffffffffffffffffffffff1673ffffffffffffffffffffffffffffffffffffffff16815260200190815260200160002060030160029054906101000a900460ff161515145b15611b6e5760008060008473ffffffffffffffffffffffffffffffffffffffff1673ffffffffffffffffffffffffffffffffffffffff16815260200190815260200160002060030160016101000a81548160ff02191690831515021790555060008060008473ffffffffffffffffffffffffffffffffffffffff1673ffffffffffffffffffffffffffffffffffffffff16815260200190815260200160002060030160026101000a81548160ff02191690831515021790555060008060008473ffffffffffffffffffffffffffffffffffffffff1673ffffffffffffffffffffffffffffffffffffffff16815260200190815260200160002060030160006101000a81548160ff0219169083151502179055507f2974ec83b4de9f76155d0c3e88bd3c0645c56c1795807f37d3f9e95caafeee576040518080602001828103825260068152602001807f32207369676e000000000000000000000000000000000000000000000000000081525060200191505060405180910390a1611be4565b60018160ff161415611be3577f2974ec83b4de9f76155d0c3e88bd3c0645c56c1795807f37d3f9e95caafeee576040518080602001828103825260068152602001807f31207369676e000000000000000000000000000000000000000000000000000081525060200191505060405180910390a15b5b5b5b5050565b828054600181600116156101000203166002900490600052602060002090601f016020900481019282601f10611c2b57805160ff1916838001178555611c59565b82800160010185558215611c59579182015b82811115611c58578251825591602001919060010190611c3d565b5b509050611c669190611c6a565b5090565b611c8c91905b80821115611c88576000816000905550600101611c70565b5090565b9056fea265627a7a7231582058babf88ba8d876e3fb603fdd806cc9aa960f6fca2e87e057c76d6f51495062c64736f6c63430005100032",
  "source": "pragma solidity >=0.4.23;\n\ncontract IPFSInbox {\n    /// @dev patRec stores the patient records\n    /// @dev docAdd: Doctor address, patAdd: patient address, ipfsHash: patient record ipfs hash, isExists:checks if record exists\n    /// @dev patUpd,docUpd checks for update and deletion operations\n    /// @dev shareAdd addresses of additional people that the record has been shared with.\n    struct patRec{\n        address docAdd;\n        address patAdd;\n        string ipfsHash;\n        bool isExists;\n        bool patUpd;\n        bool docUpd;\n        address[] sharedAdd;\n    }\n\n    /// @dev mapping of addresses to records\n    mapping (address => patRec) ipfsInbox;\n\n    /// @dev mapping of addresses to roles\n    mapping (address => uint8) roles;\n    // Events\n    event ipfsSent(string _ipfsHash, address _address);\n    event inboxResponse(string response);\n\n    /// @dev Here for testing purposes roles are declared\n    constructor() public {\n        roles[0x4c2D220c5c16c1b10531Eaa06955Fc405f083A6C]=1; // doctor\n        roles[0xE6b77C28b0a5A63b73e1a470F36187d74B8Aa0b4]=2; // pat\n        roles[0x01F80c59484EBf5f2956Db8ec58E502DbDA9DfF9]=3; // hc prov\n    }\n\n    /// @dev function to add a patient record\n    /// @param _address is the address of the patient whose record is being added\n    /// @param _ipfsHash is the hash of the record of the patient\n    function sendIPFS(address _address, string memory _ipfsHash) public {\n        if(ipfsInbox[_address].isExists == true)\n            emit inboxResponse(\"exists\");\n            // emit ipfsSent(\"Patient record exists already!\", _address);\n        // require(ipfsInbox[_address].isExists == false);\n        else {\n            if(roles[msg.sender] == 1){\n                ipfsInbox[_address].ipfsHash = _ipfsHash;\n                ipfsInbox[_address].patAdd = _address;\n                ipfsInbox[_address].docAdd = msg.sender;\n                ipfsInbox[_address].isExists = true;\n                emit ipfsSent(_ipfsHash, _address);\n            }\n            else{\n                emit inboxResponse(\"Not a doctor\");\n            }\n        }\n        \n    }\n    /// @dev function that is used by healthcare provider to assign doctor role\n    /// @param _address is the address of the doctor whose role is to be assigned\n    function assignDoc(address _address) public{\n        if(roles[msg.sender] == 3){\n            roles[_address] = 1;\n        }\n    }\n    /// @dev function that is used by healthcare provider to assign patient role\n    /// @param _address is the address of the patient whose role is to be assigned\n    function assignPat(address _address) public{\n        if(roles[msg.sender] == 3){\n            roles[_address] = 2;\n        }\n    }\n    \n    /// @dev function is to get permissions from both the doctor and the patient before updating records\n    /// @param _address is the address of the patient whose record is to be updated\n    function canUpdate(address _address) public{\n        uint8 f = 0;\n        if(ipfsInbox[_address].docAdd == msg.sender){\n            ipfsInbox[_address].docUpd = true;\n            f += 1;\n        }\n        if(ipfsInbox[_address].patAdd == msg.sender){\n            ipfsInbox[_address].patUpd = true;\n            f += 1;\n        }\n\n        if(ipfsInbox[_address].isExists == false)\n            emit inboxResponse(\"No record\");\n        else if (f==0)\n            emit inboxResponse(\"Insufficient Permissions\");\n        \n        else if(ipfsInbox[_address].patUpd == true && ipfsInbox[_address].docUpd == true){\n            ipfsInbox[_address].patUpd = false;\n            ipfsInbox[_address].docUpd = false;\n            ipfsInbox[_address].isExists = false;\n            emit inboxResponse(\"2 sign\");\n        }\n\n        else if(f==1)\n            emit inboxResponse(\"1 sign\");\n        \n        \n    }\n    /// @dev function to check ipfsInbox default\n    function checkInbox() public{\n        string memory ipfs_hash = ipfsInbox[msg.sender].ipfsHash;\n        if(bytes(ipfs_hash).length == 0) {\n            emit inboxResponse(\"No record\");\n        } else {\n            // ipfsInbox[msg.sender] = \"\";\n            emit inboxResponse(ipfs_hash);\n        }\n    }\n\n    /// @dev function used to get the record of a particular patient\n    /// @param _reqaddress is the address of the patient whose record we wish to view\n    function getRecord(address _reqaddress) public{\n        if(ipfsInbox[_reqaddress].isExists == false)\n            emit inboxResponse(\"No record\");\n\n        else if(ipfsInbox[_reqaddress].docAdd == msg.sender || ipfsInbox[_reqaddress].patAdd == msg.sender){\n            string memory ipfs_hash = ipfsInbox[_reqaddress].ipfsHash;\n            if(bytes(ipfs_hash).length == 0) {\n                emit inboxResponse(\"No record\");\n            } \n            else {\n                // ipfsInbox[msg.sender] = \"\";\n                emit inboxResponse(ipfs_hash);\n            }\n        }\n\n        else {\n            string memory ipfs_hash = ipfsInbox[_reqaddress].ipfsHash;\n            uint8 i = 0;\n            bool hasPerm = false;\n\n            for(i = 0;i<ipfsInbox[_reqaddress].sharedAdd.length;i++)\n            {\n                if(ipfsInbox[_reqaddress].sharedAdd[i] == msg.sender)\n                {\n                    hasPerm = true;\n                }\n            }\n            if(hasPerm == false) {\n                emit inboxResponse(\"Insufficient Permissions\");\n            } else {\n                emit inboxResponse(ipfs_hash);\n            }\n        }\n    }\n\n    /// @dev function used to share the record of a particular patient\n    /// @param _shareaddress is the address of the person who record is being shared with\n    function signRequest(address _shareaddress) public{\n        if(ipfsInbox[msg.sender].isExists == true)\n            ipfsInbox[msg.sender].sharedAdd.push(_shareaddress); \n        else\n            emit inboxResponse(\"No record\");\n    }\n\n    /// @dev function used to fetch a shared record\n    /// @param _shareaddress is the address of the patient whose record we wish to view\n    function getSharedRecord(address _shareaddress) public{\n        string memory ipfs_hash = ipfsInbox[_shareaddress].ipfsHash;\n        uint8 i = 0;\n        bool hasPerm = false;\n        for(i = 0;i<ipfsInbox[_shareaddress].sharedAdd.length;i++)\n        {\n            if(ipfsInbox[_shareaddress].sharedAdd[i] == msg.sender)\n            {\n                hasPerm = true;\n            }\n        }\n        if(hasPerm == false) {\n            emit inboxResponse(\"Empty Inbox\");\n        } else {\n            emit inboxResponse(ipfs_hash);\n        }\n    }\n}\n",
  "sourcePath": "/home/shradha/Desktop/blockchain/IPFS-Ethereum-Tutorial/contracts/IPFSInbox.sol",
  "compiler": {
    "name": "solc",
    "version": "0.5.16+commit.9c3226ce.Emscripten.clang"
  },
  "schemaVersion": "3.2.5",
  "updatedAt": "2020-11-23T10:05:37.111Z",
  "networkType": "ethereum",
  "devdoc": {
    "methods": {
      "assignDoc(address)": {
        "details": "function that is used by healthcare provider to assign doctor role",
        "params": {
          "_address": "is the address of the doctor whose role is to be assigned"
        }
      },
      "assignPat(address)": {
        "details": "function that is used by healthcare provider to assign patient role",
        "params": {
          "_address": "is the address of the patient whose role is to be assigned"
        }
      },
      "canUpdate(address)": {
        "details": "function is to get permissions from both the doctor and the patient before updating records",
        "params": {
          "_address": "is the address of the patient whose record is to be updated"
        }
      },
      "checkInbox()": {
        "details": "function to check ipfsInbox default"
      },
      "constructor": {
        "details": "Here for testing purposes roles are declared"
      },
      "getRecord(address)": {
        "details": "function used to get the record of a particular patient",
        "params": {
          "_reqaddress": "is the address of the patient whose record we wish to view"
        }
      },
      "getSharedRecord(address)": {
        "details": "function used to fetch a shared record",
        "params": {
          "_shareaddress": "is the address of the patient whose record we wish to view"
        }
      },
      "sendIPFS(address,string)": {
        "details": "function to add a patient record",
        "params": {
          "_address": "is the address of the patient whose record is being added",
          "_ipfsHash": "is the hash of the record of the patient"
        }
      },
      "signRequest(address)": {
        "details": "function used to share the record of a particular patient",
        "params": {
          "_shareaddress": "is the address of the person who record is being shared with"
        }
      }
    }
  },
  "userdoc": {
    "methods": {}
  }
}