{
  "contractName": "IPFSInbox",
  "abi": [
    {
      "inputs": [],
      "payable": false,
      "stateMutability": "nonpayable",
      "type": "constructor"
    },
    {
      "anonymous": false,
      "inputs": [
        {
          "indexed": false,
          "internalType": "string",
          "name": "response",
          "type": "string"
        }
      ],
      "name": "inboxResponse",
      "type": "event"
    },
    {
      "anonymous": false,
      "inputs": [
        {
          "indexed": false,
          "internalType": "string",
          "name": "_ipfsHash",
          "type": "string"
        },
        {
          "indexed": false,
          "internalType": "address",
          "name": "_address",
          "type": "address"
        }
      ],
      "name": "ipfsSent",
      "type": "event"
    },
    {
      "constant": false,
      "inputs": [
        {
          "internalType": "address",
          "name": "_address",
          "type": "address"
        },
        {
          "internalType": "string",
          "name": "_ipfsHash",
          "type": "string"
        }
      ],
      "name": "sendIPFS",
      "outputs": [],
      "payable": false,
      "stateMutability": "nonpayable",
      "type": "function"
    },
    {
      "constant": false,
      "inputs": [
        {
          "internalType": "address",
          "name": "_address",
          "type": "address"
        }
      ],
      "name": "canUpdate",
      "outputs": [],
      "payable": false,
      "stateMutability": "nonpayable",
      "type": "function"
    },
    {
      "constant": false,
      "inputs": [],
      "name": "checkInbox",
      "outputs": [],
      "payable": false,
      "stateMutability": "nonpayable",
      "type": "function"
    },
    {
      "constant": false,
      "inputs": [
        {
          "internalType": "address",
          "name": "_reqaddress",
          "type": "address"
        }
      ],
      "name": "getRecord",
      "outputs": [],
      "payable": false,
      "stateMutability": "nonpayable",
      "type": "function"
    },
    {
      "constant": false,
      "inputs": [
        {
          "internalType": "address",
          "name": "_shareaddress",
          "type": "address"
        }
      ],
      "name": "signRequest",
      "outputs": [],
      "payable": false,
      "stateMutability": "nonpayable",
      "type": "function"
    },
    {
      "constant": false,
      "inputs": [
        {
          "internalType": "address",
          "name": "_shareaddress",
          "type": "address"
        }
      ],
      "name": "getSharedRecord",
      "outputs": [],
      "payable": false,
      "stateMutability": "nonpayable",
      "type": "function"
    }
  ],
  "bytecode": "0x608060405234801561001057600080fd5b506119e9806100206000396000f3fe608060405234801561001057600080fd5b50600436106100625760003560e01c80633137a11d146100675780635c23d56f146100ab578063617fba04146100b55780636bfc70e2146100f95780638c5f6432146101d4578063e73872b914610218575b600080fd5b6100a96004803603602081101561007d57600080fd5b81019080803573ffffffffffffffffffffffffffffffffffffffff16906020019092919050505061025c565b005b6100b3610574565b005b6100f7600480360360208110156100cb57600080fd5b81019080803573ffffffffffffffffffffffffffffffffffffffff169060200190929190505050610769565b005b6101d26004803603604081101561010f57600080fd5b81019080803573ffffffffffffffffffffffffffffffffffffffff1690602001909291908035906020019064010000000081111561014c57600080fd5b82018360208201111561015e57600080fd5b8035906020019184600183028401116401000000008311171561018057600080fd5b91908080601f016020809104026020016040519081016040528093929190818152602001838380828437600081840152601f19601f820116905080830192505050505050509192919290505050610e6f565b005b610216600480360360208110156101ea57600080fd5b81019080803573ffffffffffffffffffffffffffffffffffffffff1690602001909291905050506111bc565b005b61025a6004803603602081101561022e57600080fd5b81019080803573ffffffffffffffffffffffffffffffffffffffff16906020019092919050505061132d565b005b60606000808373ffffffffffffffffffffffffffffffffffffffff1673ffffffffffffffffffffffffffffffffffffffff1681526020019081526020016000206002018054600181600116156101000203166002900480601f0160208091040260200160405190810160405280929190818152602001828054600181600116156101000203166002900480156103335780601f1061030857610100808354040283529160200191610333565b820191906000526020600020905b81548152906001019060200180831161031657829003601f168201915b5050505050905060008090506000809050600091505b6000808573ffffffffffffffffffffffffffffffffffffffff1673ffffffffffffffffffffffffffffffffffffffff168152602001908152602001600020600401805490508260ff161015610457573373ffffffffffffffffffffffffffffffffffffffff166000808673ffffffffffffffffffffffffffffffffffffffff1673ffffffffffffffffffffffffffffffffffffffff1681526020019081526020016000206004018360ff16815481106103fe57fe5b9060005260206000200160009054906101000a900473ffffffffffffffffffffffffffffffffffffffff1673ffffffffffffffffffffffffffffffffffffffff16141561044a57600190505b8180600101925050610349565b6000151581151514156104d1577f2974ec83b4de9f76155d0c3e88bd3c0645c56c1795807f37d3f9e95caafeee5760405180806020018281038252600b8152602001807f456d70747920496e626f7800000000000000000000000000000000000000000081525060200191505060405180910390a161056e565b7f2974ec83b4de9f76155d0c3e88bd3c0645c56c1795807f37d3f9e95caafeee57836040518080602001828103825283818151815260200191508051906020019080838360005b83811015610533578082015181840152602081019050610518565b50505050905090810190601f1680156105605780820380516001836020036101000a031916815260200191505b509250505060405180910390a15b50505050565b60606000803373ffffffffffffffffffffffffffffffffffffffff1673ffffffffffffffffffffffffffffffffffffffff1681526020019081526020016000206002018054600181600116156101000203166002900480601f01602080910402602001604051908101604052809291908181526020018280546001816001161561010002031660029004801561064b5780601f106106205761010080835404028352916020019161064b565b820191906000526020600020905b81548152906001019060200180831161062e57829003601f168201915b505050505090506000815114156106c9577f2974ec83b4de9f76155d0c3e88bd3c0645c56c1795807f37d3f9e95caafeee576040518080602001828103825260098152602001807f4e6f207265636f7264000000000000000000000000000000000000000000000081525060200191505060405180910390a1610766565b7f2974ec83b4de9f76155d0c3e88bd3c0645c56c1795807f37d3f9e95caafeee57816040518080602001828103825283818151815260200191508051906020019080838360005b8381101561072b578082015181840152602081019050610710565b50505050905090810190601f1680156107585780820380516001836020036101000a031916815260200191505b509250505060405180910390a15b50565b600015156000808373ffffffffffffffffffffffffffffffffffffffff1673ffffffffffffffffffffffffffffffffffffffff16815260200190815260200160002060030160009054906101000a900460ff1615151415610831577f2974ec83b4de9f76155d0c3e88bd3c0645c56c1795807f37d3f9e95caafeee576040518080602001828103825260098152602001807f4e6f207265636f7264000000000000000000000000000000000000000000000081525060200191505060405180910390a1610e6c565b3373ffffffffffffffffffffffffffffffffffffffff166000808373ffffffffffffffffffffffffffffffffffffffff1673ffffffffffffffffffffffffffffffffffffffff16815260200190815260200160002060000160009054906101000a900473ffffffffffffffffffffffffffffffffffffffff1673ffffffffffffffffffffffffffffffffffffffff16148061095857503373ffffffffffffffffffffffffffffffffffffffff166000808373ffffffffffffffffffffffffffffffffffffffff1673ffffffffffffffffffffffffffffffffffffffff16815260200190815260200160002060010160009054906101000a900473ffffffffffffffffffffffffffffffffffffffff1673ffffffffffffffffffffffffffffffffffffffff16145b15610b555760606000808373ffffffffffffffffffffffffffffffffffffffff1673ffffffffffffffffffffffffffffffffffffffff1681526020019081526020016000206002018054600181600116156101000203166002900480601f016020809104026020016040519081016040528092919081815260200182805460018160011615610100020316600290048015610a345780601f10610a0957610100808354040283529160200191610a34565b820191906000526020600020905b815481529060010190602001808311610a1757829003601f168201915b50505050509050600081511415610ab2577f2974ec83b4de9f76155d0c3e88bd3c0645c56c1795807f37d3f9e95caafeee576040518080602001828103825260098152602001807f4e6f207265636f7264000000000000000000000000000000000000000000000081525060200191505060405180910390a1610b4f565b7f2974ec83b4de9f76155d0c3e88bd3c0645c56c1795807f37d3f9e95caafeee57816040518080602001828103825283818151815260200191508051906020019080838360005b83811015610b14578082015181840152602081019050610af9565b50505050905090810190601f168015610b415780820380516001836020036101000a031916815260200191505b509250505060405180910390a15b50610e6b565b60606000808373ffffffffffffffffffffffffffffffffffffffff1673ffffffffffffffffffffffffffffffffffffffff1681526020019081526020016000206002018054600181600116156101000203166002900480601f016020809104026020016040519081016040528092919081815260200182805460018160011615610100020316600290048015610c2c5780601f10610c0157610100808354040283529160200191610c2c565b820191906000526020600020905b815481529060010190602001808311610c0f57829003601f168201915b5050505050905060008090506000809050600091505b6000808573ffffffffffffffffffffffffffffffffffffffff1673ffffffffffffffffffffffffffffffffffffffff168152602001908152602001600020600401805490508260ff161015610d50573373ffffffffffffffffffffffffffffffffffffffff166000808673ffffffffffffffffffffffffffffffffffffffff1673ffffffffffffffffffffffffffffffffffffffff1681526020019081526020016000206004018360ff1681548110610cf757fe5b9060005260206000200160009054906101000a900473ffffffffffffffffffffffffffffffffffffffff1673ffffffffffffffffffffffffffffffffffffffff161415610d4357600190505b8180600101925050610c42565b600015158115151415610dca577f2974ec83b4de9f76155d0c3e88bd3c0645c56c1795807f37d3f9e95caafeee576040518080602001828103825260188152602001807f496e73756666696369656e74205065726d697373696f6e73000000000000000081525060200191505060405180910390a1610e67565b7f2974ec83b4de9f76155d0c3e88bd3c0645c56c1795807f37d3f9e95caafeee57836040518080602001828103825283818151815260200191508051906020019080838360005b83811015610e2c578082015181840152602081019050610e11565b50505050905090810190601f168015610e595780820380516001836020036101000a031916815260200191505b509250505060405180910390a15b5050505b5b50565b600115156000808473ffffffffffffffffffffffffffffffffffffffff1673ffffffffffffffffffffffffffffffffffffffff16815260200190815260200160002060030160009054906101000a900460ff1615151415610f37577f2974ec83b4de9f76155d0c3e88bd3c0645c56c1795807f37d3f9e95caafeee576040518080602001828103825260068152602001807f657869737473000000000000000000000000000000000000000000000000000081525060200191505060405180910390a16111b8565b806000808473ffffffffffffffffffffffffffffffffffffffff1673ffffffffffffffffffffffffffffffffffffffff1681526020019081526020016000206002019080519060200190610f8c92919061190f565b50816000808473ffffffffffffffffffffffffffffffffffffffff1673ffffffffffffffffffffffffffffffffffffffff16815260200190815260200160002060010160006101000a81548173ffffffffffffffffffffffffffffffffffffffff021916908373ffffffffffffffffffffffffffffffffffffffff160217905550336000808473ffffffffffffffffffffffffffffffffffffffff1673ffffffffffffffffffffffffffffffffffffffff16815260200190815260200160002060000160006101000a81548173ffffffffffffffffffffffffffffffffffffffff021916908373ffffffffffffffffffffffffffffffffffffffff16021790555060016000808473ffffffffffffffffffffffffffffffffffffffff1673ffffffffffffffffffffffffffffffffffffffff16815260200190815260200160002060030160006101000a81548160ff0219169083151502179055507fd3896131bca4353bcda578f36768163e2ca77cefb2988be6c4e81939ca298ac0818360405180806020018373ffffffffffffffffffffffffffffffffffffffff1673ffffffffffffffffffffffffffffffffffffffff168152602001828103825284818151815260200191508051906020019080838360005b8381101561117c578082015181840152602081019050611161565b50505050905090810190601f1680156111a95780820380516001836020036101000a031916815260200191505b50935050505060405180910390a15b5050565b600115156000803373ffffffffffffffffffffffffffffffffffffffff1673ffffffffffffffffffffffffffffffffffffffff16815260200190815260200160002060030160009054906101000a900460ff16151514156112c1576000803373ffffffffffffffffffffffffffffffffffffffff1673ffffffffffffffffffffffffffffffffffffffff1681526020019081526020016000206004018190806001815401808255809150509060018203906000526020600020016000909192909190916101000a81548173ffffffffffffffffffffffffffffffffffffffff021916908373ffffffffffffffffffffffffffffffffffffffff1602179055505061132a565b7f2974ec83b4de9f76155d0c3e88bd3c0645c56c1795807f37d3f9e95caafeee576040518080602001828103825260098152602001807f4e6f207265636f7264000000000000000000000000000000000000000000000081525060200191505060405180910390a15b50565b60008090503373ffffffffffffffffffffffffffffffffffffffff166000808473ffffffffffffffffffffffffffffffffffffffff1673ffffffffffffffffffffffffffffffffffffffff16815260200190815260200160002060000160009054906101000a900473ffffffffffffffffffffffffffffffffffffffff1673ffffffffffffffffffffffffffffffffffffffff1614156114285760016000808473ffffffffffffffffffffffffffffffffffffffff1673ffffffffffffffffffffffffffffffffffffffff16815260200190815260200160002060030160026101000a81548160ff0219169083151502179055506001810190505b3373ffffffffffffffffffffffffffffffffffffffff166000808473ffffffffffffffffffffffffffffffffffffffff1673ffffffffffffffffffffffffffffffffffffffff16815260200190815260200160002060010160009054906101000a900473ffffffffffffffffffffffffffffffffffffffff1673ffffffffffffffffffffffffffffffffffffffff16141561151e5760016000808473ffffffffffffffffffffffffffffffffffffffff1673ffffffffffffffffffffffffffffffffffffffff16815260200190815260200160002060030160016101000a81548160ff0219169083151502179055506001810190505b600015156000808473ffffffffffffffffffffffffffffffffffffffff1673ffffffffffffffffffffffffffffffffffffffff16815260200190815260200160002060030160009054906101000a900460ff16151514156115e6577f2974ec83b4de9f76155d0c3e88bd3c0645c56c1795807f37d3f9e95caafeee576040518080602001828103825260098152602001807f4e6f207265636f7264000000000000000000000000000000000000000000000081525060200191505060405180910390a161190b565b60008160ff16141561165f577f2974ec83b4de9f76155d0c3e88bd3c0645c56c1795807f37d3f9e95caafeee576040518080602001828103825260188152602001807f496e73756666696369656e74205065726d697373696f6e73000000000000000081525060200191505060405180910390a161190a565b600115156000808473ffffffffffffffffffffffffffffffffffffffff1673ffffffffffffffffffffffffffffffffffffffff16815260200190815260200160002060030160019054906101000a900460ff1615151480156117135750600115156000808473ffffffffffffffffffffffffffffffffffffffff1673ffffffffffffffffffffffffffffffffffffffff16815260200190815260200160002060030160029054906101000a900460ff161515145b156118935760008060008473ffffffffffffffffffffffffffffffffffffffff1673ffffffffffffffffffffffffffffffffffffffff16815260200190815260200160002060030160016101000a81548160ff02191690831515021790555060008060008473ffffffffffffffffffffffffffffffffffffffff1673ffffffffffffffffffffffffffffffffffffffff16815260200190815260200160002060030160026101000a81548160ff02191690831515021790555060008060008473ffffffffffffffffffffffffffffffffffffffff1673ffffffffffffffffffffffffffffffffffffffff16815260200190815260200160002060030160006101000a81548160ff0219169083151502179055507f2974ec83b4de9f76155d0c3e88bd3c0645c56c1795807f37d3f9e95caafeee576040518080602001828103825260068152602001807f32207369676e000000000000000000000000000000000000000000000000000081525060200191505060405180910390a1611909565b60018160ff161415611908577f2974ec83b4de9f76155d0c3e88bd3c0645c56c1795807f37d3f9e95caafeee576040518080602001828103825260068152602001807f31207369676e000000000000000000000000000000000000000000000000000081525060200191505060405180910390a15b5b5b5b5050565b828054600181600116156101000203166002900490600052602060002090601f016020900481019282601f1061195057805160ff191683800117855561197e565b8280016001018555821561197e579182015b8281111561197d578251825591602001919060010190611962565b5b50905061198b919061198f565b5090565b6119b191905b808211156119ad576000816000905550600101611995565b5090565b9056fea265627a7a72315820716873096cf2a1c7744d0f30f39a477e379228e280dd2c6d773094df34fbe7c864736f6c63430005100032",
  "source": "pragma solidity >=0.4.23;\n\ncontract IPFSInbox {\n    struct patRec{\n        address docAdd;\n        address patAdd;\n        string ipfsHash;\n        bool isExists;\n        bool patUpd;\n        bool docUpd;\n        address[] sharedAdd;\n    }\n    struct shareRec{\n        address shareAdd;\n        address patAdd;\n        string ipfsHash;\n    }\n    // Grabs the name of the resources based on address\n    mapping (address => patRec) ipfsInbox;\n    mapping (address => shareRec) shareInbox;\n    // Events\n    event ipfsSent(string _ipfsHash, address _address);\n    event inboxResponse(string response);\n\n    // Modifiers\n    modifier notFull (string memory _string) {bytes memory stringTest = bytes(_string); require (stringTest.length == 0); _;}\n\n    constructor() public {\n\n    }\n\n    function sendIPFS(address _address, string memory _ipfsHash) public {\n        if(ipfsInbox[_address].isExists == true)\n            emit inboxResponse(\"exists\");\n            // emit ipfsSent(\"Patient record exists already!\", _address);\n        // require(ipfsInbox[_address].isExists == false);\n        else {\n            ipfsInbox[_address].ipfsHash = _ipfsHash;\n            ipfsInbox[_address].patAdd = _address;\n            ipfsInbox[_address].docAdd = msg.sender;\n            ipfsInbox[_address].isExists = true;\n            emit ipfsSent(_ipfsHash, _address);\n        }\n        \n    }\n\n    function canUpdate(address _address) public{\n        uint8 f = 0;\n        if(ipfsInbox[_address].docAdd == msg.sender){\n            ipfsInbox[_address].docUpd = true;\n            f += 1;\n        }\n        if(ipfsInbox[_address].patAdd == msg.sender){\n            ipfsInbox[_address].patUpd = true;\n            f += 1;\n        }\n\n        if(ipfsInbox[_address].isExists == false)\n            emit inboxResponse(\"No record\");\n        else if (f==0)\n            emit inboxResponse(\"Insufficient Permissions\");\n        \n        else if(ipfsInbox[_address].patUpd == true && ipfsInbox[_address].docUpd == true){\n            ipfsInbox[_address].patUpd = false;\n            ipfsInbox[_address].docUpd = false;\n            ipfsInbox[_address].isExists = false;\n            emit inboxResponse(\"2 sign\");\n        }\n\n        else if(f==1)\n            emit inboxResponse(\"1 sign\");\n        \n        \n    }\n    function checkInbox() public{\n        string memory ipfs_hash = ipfsInbox[msg.sender].ipfsHash;\n        if(bytes(ipfs_hash).length == 0) {\n            emit inboxResponse(\"No record\");\n        } else {\n            // ipfsInbox[msg.sender] = \"\";\n            emit inboxResponse(ipfs_hash);\n        }\n    }\n    function getRecord(address _reqaddress) public{\n        if(ipfsInbox[_reqaddress].isExists == false)\n            emit inboxResponse(\"No record\");\n\n        else if(ipfsInbox[_reqaddress].docAdd == msg.sender || ipfsInbox[_reqaddress].patAdd == msg.sender){\n            string memory ipfs_hash = ipfsInbox[_reqaddress].ipfsHash;\n            if(bytes(ipfs_hash).length == 0) {\n                emit inboxResponse(\"No record\");\n            } \n            else {\n                // ipfsInbox[msg.sender] = \"\";\n                emit inboxResponse(ipfs_hash);\n            }\n        }\n\n        else {\n            string memory ipfs_hash = ipfsInbox[_reqaddress].ipfsHash;\n            uint8 i = 0;\n            bool hasPerm = false;\n\n            for(i = 0;i<ipfsInbox[_reqaddress].sharedAdd.length;i++)\n            {\n                if(ipfsInbox[_reqaddress].sharedAdd[i] == msg.sender)\n                {\n                    hasPerm = true;\n                }\n            }\n            if(hasPerm == false) {\n                emit inboxResponse(\"Insufficient Permissions\");\n            } else {\n                emit inboxResponse(ipfs_hash);\n            }\n        }\n    }\n    function signRequest(address _shareaddress) public{\n        if(ipfsInbox[msg.sender].isExists == true)\n            ipfsInbox[msg.sender].sharedAdd.push(_shareaddress); \n        else\n            emit inboxResponse(\"No record\");\n    }\n    function getSharedRecord(address _shareaddress) public{\n        string memory ipfs_hash = ipfsInbox[_shareaddress].ipfsHash;\n        uint8 i = 0;\n        bool hasPerm = false;\n        for(i = 0;i<ipfsInbox[_shareaddress].sharedAdd.length;i++)\n        {\n            if(ipfsInbox[_shareaddress].sharedAdd[i] == msg.sender)\n            {\n                hasPerm = true;\n            }\n        }\n        if(hasPerm == false) {\n            emit inboxResponse(\"Empty Inbox\");\n        } else {\n            emit inboxResponse(ipfs_hash);\n        }\n    }\n}\n",
  "sourcePath": "/home/shradha/Desktop/blockchain/IPFS-Ethereum-Tutorial/contracts/IPFSInbox.sol",
  "compiler": {
    "name": "solc",
    "version": "0.5.16+commit.9c3226ce.Emscripten.clang"
  },
  "schemaVersion": "3.2.5",
  "updatedAt": "2020-11-23T07:22:05.419Z",
  "networkType": "ethereum",
  "devdoc": {
    "methods": {}
  },
  "userdoc": {
    "methods": {}
  }
}